:020000040800F2
:1000000070160020210200086B0F0008670F00081F
:10001000690F0008FD040008B91000080000000086
:10002000000000000000000000000000890100083E
:10003000FF04000800000000CD010008A90F00081F
:100040003B0200083B0200083B0200083B0200089C
:100050003B0200083B0200083B0200083B0200088C
:100060003B0200083B0200083B0200083B0200087C
:100070003B0200083B0200083B0200083B0200086C
:100080003B0200083B0200083B0200083B0200085C
:100090003B0200083B0200083B0200083B0200084C
:1000A0003B0200083B0200083B0200083B0200083C
:1000B0003B0200083B020008351000083B02000824
:1000C0003B0200083B0200083B0200083B0200081C
:1000D0003B0200083B0200083B0200083B0200080C
:1000E0003B0200083B0200083B02000800F002F857
:1000F00000F03AF80AA090E8000C82448344AAF188
:100100000107DA4501D100F02FF8AFF2090EBAE885
:100110000F0013F0010F18BFFB1A43F0010318473B
:10012000BC240000DC240000103A24BF78C878C149
:10013000FAD8520724BF30C830C144BF04680C60ED
:10014000704700000023002400250026103A28BF35
:1001500078C1FBD8520728BF30C148BF0B60704739
:100160001FB51FBD10B510BD00F01BF91146FFF7FC
:10017000F7FF00F0B3FF00F039F903B4FFF7F2FF27
:1001800003BC00F041F90000224B19680868B0E890
:10019000F00F80F30988BFF36F8F4FF0000080F3FA
:1001A00011884EF00D0E70470000000006480068F0
:1001B000006880F3088862B661B6BFF34F8FBFF363
:1001C0006F8F00DF00BF00BF08ED00E0EFF3098094
:1001D000BFF36F8F0F4B1A6820E9F00F106008B55E
:1001E0004FF0500080F31188BFF34F8FBFF36F8F34
:1001F00001F0E6FB4FF0000080F31188BDE80840F5
:1002000019680868B0E8F00F80F30988BFF36F8FB2
:10021000704700BF1C000020EFF30580704700000E
:100220000948804709480047FEE7FEE7FEE7FEE78A
:10023000FEE7FEE7FEE7FEE7FEE7FEE704480549C6
:10024000054A064B7047000033100008ED00000817
:100250007010002070160020701200207012002014
:10026000032A40F2308010F0030C00F0158011F8E2
:10027000013BBCF1020F624498BF11F801CB00F8BA
:10028000013B38BF11F8013BA2F1040298BF00F80E
:1002900001CB38BF00F8013B11F0030300F02580CB
:1002A000083AC0F0088051F8043B083A51F804CBF2
:1002B000A0E80810F5E7121D5CBF51F8043B40F8B8
:1002C000043BAFF30080D20724BF11F8013B11F8C3
:1002D00001CB48BF11F8012B24BF00F8013B00F807
:1002E00001CB48BF00F8012B704710B5203AC0F091
:1002F0000B80B1E81850203AA0E81850B1E8185027
:10030000A0E81850BFF4F5AF5FEA027C24BFB1E863
:100310001850A0E8185044BF18C918C0BDE81040D4
:100320005FEA827C24BF51F8043B40F8043B08BFDD
:100330007047D20728BF31F8023B48BF11F8012BA4
:1003400028BF20F8023B48BF00F8012B70474FF050
:10035000000200B5134694469646203922BFA0E815
:100360000C50A0E80C50B1F12001BFF4F7AF090721
:1003700028BFA0E80C5048BF0CC05DF804EB890012
:1003800028BF40F8042B08BF704748BF20F8022B55
:1003900011F0804F18BF00F8012B7047704770476D
:1003A0007047754600F02CF8AE4605006946534686
:1003B00020F00700854618B020B5FFF73FFFBDE8E5
:1003C00020404FF000064FF000074FF000084FF0BC
:1003D000000B21F00701AC46ACE8C009ACE8C0094D
:1003E000ACE8C009ACE8C0098D46704710B50446BA
:1003F000AFF300802046BDE81040FFF7BEBE00000E
:10040000004870471010002001491820ABBEFEE7DD
:1004100026000200704700001CB53149314FDFF85B
:10042000C880D1E90001DFF8C4A0DFF8C4B04FF400
:100430007A79CDE9000100226946386801F058FC5C
:100440000098404502DC4FF07E50009001985045E6
:1004500002D30020019003E0584501DDCDF804B03F
:100460002448009901F0CEFE01F08EFF044601F011
:10047000ABFF019901F0BCFF594601F0C3FE01F04A
:1004800083FF0546AC4201D9661B00E00026E5B1BA
:100490004FF00102D6B10121174800F021F94FF4C5
:1004A0007A7045434C46B5FBF4F001F0FFF90022A9
:1004B0000121114800F014F94FF47A704643B6FB5D
:1004C000F4F000BF01F0F2F9B5E7002201210A487B
:1004D00000F006F94FF47A704443B4FBF9F0F1E709
:1004E00088250008000000206F12833A00008080F9
:1004F0000000C84200007A4400080140FEE770474F
:100500002DE9F84FDFF8B8910024A9F1040B234638
:100510000F2709F1040AABF1040EC9E00125A5403B
:100520002A40AA427DD1674ED1F804C0ACEB060840
:10053000B44532D014DCBCF1030F3AD009DCBCF175
:10054000000F2AD0BCF1010F1CD0BCF1020F31D139
:100550001DE0BCF1110F17D0BCF1120F2AD119E028
:10056000B8F5881F19D006DCB8F5803F15D0B8F56E
:10057000801F1FD111E0B8F5001F0ED0B8F5041F81
:1005800018D10AE0CB6815E0CB681B1D12E0CB68E0
:1005900008330FE0CB680C330CE08B682BB1012BD8
:1005A0004FF0080303D0456104E0042302E0056135
:1005B00000E00023FF2A01D8064601E000F104060E
:1005C0004FEA840501D9A5F12005D6F8008007FA85
:1005D00005FC28EA0C0803FA05F548EA0508C6F800
:1005E00000804D68ED0062D5374DAE6946F00106DA
:1005F000AE61AD6924F0030605F001050095334DA9
:1006000006EB050CDCF80850A607360F07FA06F8CB
:1006100025EA0805DFF8B880404503D14FF000080F
:1006200017E044E0DFF8AC80404502D14FF001080C
:100630000FE0DFF8A480404502D14FF0020808E047
:10064000DFF89880404502D14FF0030801E04FF0F9
:10065000040808FA06F848EA0508CCF808804D684E
:10066000D9F80060ED024D4601D5164300E09643EF
:100670002E604D68DAF80060AD02554601D516438C
:1006800000E096432E604D68DBF80060AD035D46E8
:1006900001D5164300E096432E604D68DEF80060F9
:1006A000ED03754601D5164300E096432E60641CA9
:1006B0000D682A46E5407FF431AFBDE8F88F0000B1
:1006C0000804014000001110001002400000014029
:1006D00000080140000C01400010014000140140DE
:1006E0000AB1016170470904FBE700000148806816
:1006F000704700000C000020074810B5016841F069
:1007000010010160032000F0A7F80F2000F006F8A8
:1007100000F050F8002010BD0020024030B5054622
:100720001F4887B0C16941F00401C161C06906A9D1
:1007300000F00400009001A800F036F90498B0B170
:1007400000F052F940001749174AB0FBF1F1174881
:10075000491E0260416040F2E7320021C0E90321F6
:100760008160816100F008FB040003D015E000F017
:100770003BF9E8E70D4800F02DFB04000DD11E20E9
:1007800000F03CF8102D07D2002229461E2000F070
:1007900043F80748056000E0012407B0204630BD5B
:1007A0000010024040420F0000080040D802002024
:1007B000100000200F4808B5816941F001018161F6
:1007C000816901F001010091C16941F08051C1616D
:1007D000C069002200F0805000900F21901E00F0B0
:1007E0001BF80548416821F0E06141F0007141606B
:1007F00008BD00000010024000000140002809DB95
:1008000000F01F02012191404009800000F1E0202A
:10081000C0F8001170470000F0B40E4B1B680C4686
:10082000C3F30223C3F10705042D00D90425191DC4
:10083000072901D2002300E0DB1E012606FA05F19C
:10084000491E214099409E40761E16403143F0BC1F
:1008500000F033BC0CED00E0064900F00702086828
:100860004FF6FF03184040EA0220034A1043086095
:10087000704700000CED00E00000FA052DE9F0479C
:100880000F46050061D0434E306800F00700B842C3
:1008900009D2306820F0070038433060306800F03B
:1008A0000700B84251D128683B4C810712D5400758
:1008B00003D5606840F4E06060602878000703D5E5
:1008C000606840F4605060606068A96820F0F000E3
:1008D000084360602878C00728D06868012810D0D5
:1008E0002168022810D0890700292EDA616821F0DA
:1008F000030101436160FFF7F9FE804641F2883948
:100900000DE021688903EFE78901EDE7FFF7EEFECF
:10091000A0EB0801494502D90320BDE8F0876068D3
:10092000696800F00C00B0EB810FEFD1306800F087
:100930000700B8420BD9306820F007003843306018
:10094000306800F00700B84201D00120E5E72878C0
:10095000400705D56068E96820F4E06008436060FE
:100960002878000706D56068296920F4605040EABD
:10097000C100606000F048F86168084AC1F30311E3
:10098000515CC8400649086006480068FFF7C6FE8B
:100990000020C2E70020024000100240C2250008EB
:1009A00018000020100000200F2202600C4A53683B
:1009B00003F003034360536803F0F003836053685C
:1009C00003F4E063C36052684FF4E06303EAD202C9
:1009D00002610448006800F00700086070470000EA
:1009E00000100240002002400448054900684968A0
:1009F000044AC1F30221515CC8407047180000202E
:100A000000100240D22500080E4A51680E4801F03D
:100A10000C03042B11D0082B0FD10C48C1F38343D6
:100A2000C903C05C0AD55168084AC1F34041921E0F
:100A3000515C054A5043B0FBF1F07047044948430C
:100A4000704700000010024000127A00B225000832
:100A500000093D002DE9F84F040070D02078C04D0A
:100A6000C00749D06868C0F38100012807D06868D2
:100A7000C0F38100022809D16868C00306D5286840
:100A8000800339D560680028E7D035E06068B0F5AC
:100A9000803F0BD010B1B0F5A02F11D0286820F402
:100AA00080302860286820F4802002E0286840F424
:100AB00080302860606890B1FFF718FE06460AE0B3
:100AC000286840F480202860F0E700BFFFF70EFEA2
:100AD000801B642873D828688003F7D50CE0FFF7E3
:100AE00005FE064605E000BFFFF700FE801B6428F8
:100AF000F0D828688003F7D420789A4E80074FF00A
:100B000001094FF0000839D5686810F00C0F07D0C4
:100B10006868C0F38100022809D16868C00306D460
:100B20002868800714D52069012808D110E02069C1
:100B3000B0B1C6F80090FFF7D9FD074605E00AE11D
:100B4000FFF7D4FDC01B0228C4D828688007F7D55A
:100B50002868616920F0F80040EAC10028600DE0D3
:100B6000C6F80080FFF7C2FD074604E0FFF7BEFDB0
:100B7000C01B022823D828688007F7D420780007F4
:100B80002CD57948A169D9B1C0F80090FFF7AEFD26
:100B9000074604E0FFF7AAFDC01B02280FD8686AC9
:100BA0008007F7D571484FF4FA510068B0FBF1F0B7
:100BB000009000BF0098411E0091FAD20EE080E044
:100BC000C0F80080FFF792FD074604E0FFF78EFDB6
:100BD000C01B022875D8686A8007F7D420784007C0
:100BE00060D5E8690027C00008D4E86940F080506B
:100BF000E861E869012700F0805000905C480168D6
:100C0000C90513D40168834641F480710160FFF780
:100C10006DFD824606E000BFFFF768FDA0EB0A000D
:100C200064284ED8DBF80000C005F5D5E06801283F
:100C30000AD008B1052813D0286A20F001002862E4
:100C4000286A20F0040002E0286A40F001002862CF
:100C5000E06841F2883B98B1FFF748FD82460BE01F
:100C6000286A40F004002862EEE700BFFFF73EFD6F
:100C7000A0EB0A0159455AD8286A8007F6D50CE03E
:100C8000FFF734FD824605E0FFF730FDA0EB0A01D7
:100C900059454CD8286A8007F6D41FB1E86920F07E
:100CA0008050E861E06988B36968C1F38101022975
:100CB00044D00228C6F8608004D0FFF717FD044630
:100CC00038E034E0FFF712FD074604E0FFF70EFDC1
:100CD000C01B02282BD828688001F7D4206AB0F501
:100CE000803F05D16868A16820F40030084368603F
:100CF000D4E908010843696821F474110843686065
:100D0000C6F86090FFF7F2FC044606E025E000BF5D
:100D1000FFF7ECFC001B022809D828688001F7D5F2
:100D20001BE000BFFFF7E2FC001B022802D90320F2
:100D3000BDE8F88F28688001F4D40EE00128F7D0D0
:100D40006868226A00F48031914204D1616A00F43B
:100D50007010884201D00120EAE70020E8E7000097
:100D6000001002400000424280044242180000206D
:100D7000007000407047704710B5040003D094F82D
:100D80003D0010B107E0012010BD002084F83C00B8
:100D9000204600F01EF8022084F83D00211D206846
:100DA00000F04EF9012084F8460084F83E0084F8F3
:100DB0003F0084F8400084F8410084F8420084F841
:100DC000430084F8440084F8450084F83D00002086
:100DD00010BD704790F83D10012901D001207047E7
:100DE000022180F83D100168CA6842F00102CA6021
:100DF00000680B49884208D0B0F1804F05D00949FE
:100E0000884202D00849884204D1816801F0070174
:100E1000062903D0016841F00101016000207047FC
:100E2000002C0140000400400008004070472DE9FC
:100E3000F04104460068C66805694FF00007A9073D
:100E400013D5B10711D5F91E016101202077206863
:100E500080698007204602D0FFF7E8FF04E000F039
:100E60007EF8204600F07CF82777680716D57007D3
:100E700014D521686FF004000861022020772068F3
:100E8000806910F4407F204602D0FFF7CFFF04E0D6
:100E900000F065F8204600F063F82777280715D59D
:100EA000300713D521686FF008000861042020770F
:100EB0002068C0698007204602D0FFF7B7FF04E032
:100EC00000F04DF8204600F04BF82777E80616D5DD
:100ED000F00614D521686FF0100008610820207713
:100EE0002068C06910F4407F204602D0FFF79EFFC3
:100EF00004E000F034F8204600F032F82777E807E5
:100F000008D0F00706D021686FF001000861204684
:100F100000F027F8280608D5300606D521686FF0BE
:100F2000800008612046FFF725FF680608D5700697
:100F300006D521686FF040000861204600F012F8E5
:100F4000A8060AD5B00608D521686FF02000086110
:100F50002046BDE8F041FFF70EBFBDE8F0817047C5
:100F6000704770477047FEE7FEE7FEE788B041F242
:100F7000883520220A496846FFF7B7F9094F00244F
:100F80006E4600BF002306EBC4011A46386800F025
:100F9000FFFD641C04F00304284600F087FCF1E721
:100FA000902500080000002010B5502080F3118823
:100FB000BFF34F8FBFF36F8F00F0D6FF18B1044916
:100FC0004FF080500860002080F3118810BD0000B1
:100FD00004ED00E030B58FB028216846FFF7B7F97F
:100FE00014210AA8FFF7B3F901210804CDE9001084
:100FF0000024029402250491CDE907504FF4E0103B
:1010000009906846FFF726FD08B172B6FEE70F208B
:10101000CDE90A054FF48060CDE90C4002210AA811
:101020000E94FFF72BFC002801D072B6FEE70FB03C
:1010300030BD70470148FFF7FABE0000D80200201B
:10104000F0B50268194B1A4C1A4D4FF08047984280
:1010500005D0B84203D0A04201D0A84203D122F06B
:1010600070064A683243984205D0B84203D0A04285
:1010700001D0A84203D122F44074CA6822434C69CB
:1010800022F08002224302608A68C2620A68826299
:10109000984201D109690163012141610169C907D0
:1010A00003D0016921F001010161F0BD002C014074
:1010B0000004004000080040FEE70907090E002870
:1010C00004DB00F1E02080F80014704700F00F000E
:1010D00000F1E02080F8141D7047000086B0FFF793
:1010E0000BFBFFF777FF2248816941F00401816122
:1010F0008069022400F00400049001200090019017
:101100000020CDE902041B4D69462846FFF7F8F997
:10111000002201212846FFF7E3FA082100220846B1
:1011200000F0D0FC1449086068B1081DCDE900400A
:10113000E4010023224611A1134800F0AFFE01286C
:1011400003D072B6FEE772B6FEE70B490320083102
:10115000CDE90001002322460CA10F4800F09EFEBD
:10116000012801D072B6FEE700F0ECFBFEE70000BC
:10117000001002400008014000000020426C696E2F
:101180006B5461736B000000190400085369676EAB
:10119000616C5461736B00006D0F00082DE9F04124
:1011A000184C0F460546E6682068001D00F0B6FAA8
:1011B00038B9206890F82C100120884021698143BB
:1011C0002161681C07D137B12168BDE8F0410E48A4
:1011D000091D00F0E7BA20683544B5424560216832
:1011E00005D2A06BBDE8F041091D00F0C3BA606BE9
:1011F000091D00F0BFFAA06A854200D2A562BDE8D1
:10120000F08100001C000020FC0300202DE9F041CB
:10121000054600F0D3FA2E4CA068401CA060206860
:101220002C4F10B1606940B32DE02560A068012803
:1012300029D1002606EB860007EB800000F08CFA2F
:10124000761C072EF6D323488C3000F085FA21480F
:10125000A03000F081FA1F48B43000F07DFA1D483C
:10126000C83000F079FA1B48DC3000F075FA1948F4
:101270008C3060631430A06305E02068E96AC06ABE
:10128000884200D82560606A401C6062E96A0120DB
:10129000226988401043206101EB810007EB800048
:1012A000291D00F07FFA00F0A9FA606900280CD02F
:1012B0002068E96AC06A884207D207494FF0805027
:1012C0000860BFF34F8FBFF36F8FBDE8F081000060
:1012D0001C0000202003002004ED00E030B4026C6C
:1012E0000B46002A0BD0C1681144C1608468A1423A
:1012F00001D30168C16030BC1846FEF7B1BF30BCF5
:1013000070472DE9F041856B174604460026026CB4
:1013100082B1C7B1E068FEF7A3FFE168206C091A4B
:10132000E1602268914202D2A168081AE060022FAF
:1013300016D017E02068A8B9A06800F07BFE06462A
:101340000020A0600EE06068FEF78AFF216C6068F4
:1013500008446060A168884204D32068606001E0AE
:1013600005B16D1E6D1CA5633046BDE8F08110B55A
:10137000044690F8510058B101280CD002280FD033
:10138000502080F31188BFF34F8FBFF36F8FFEE7BC
:10139000206B00F047FA2046BDE8104000F042BA4A
:1013A00010BD000010484FF44061420706D0C01D38
:1013B0000D4920F00700411AC1F540610B4A002396
:1013C0000144C2E900030839183A21F0070111600D
:1013D0004B600B600B1AC0E9001393604FF00040A4
:1013E000536050617047000010040020700000201E
:1013F000144E154CA6F1C8074FF08058DFF84C90FA
:1014000012E000BF00F0DAF9F068C568281D00F0AE
:1014100085F9A068401EA0606068401E606000F012
:10142000EDF92846FFF7A3FF60680028EAD1386885
:101430000128F9D9C9F80080BFF34F8FBFF36F8F30
:10144000F2E70000E80300201C00002004ED00E0AB
:101450000346009829B10260C0E90F31012100F074
:1014600053BB0060F8E72DE9F0479A46DDE90984AF
:1014700081466FF00303206B03EB82021044089E49
:1014800020F00707780707D0502080F31188BFF3BA
:101490004F8FBFF36F8FFEE7002561B10020231847
:1014A0000A5C83F834200A5C12B1401C1028F6D381
:1014B00084F8435001E084F83450072E00D3062608
:1014C000E662C4E91165201D00F051F904F118002D
:1014D00000F04DF92461C6F107006462A061E56483
:1014E00084F8505052464946384600F005F92060CD
:1014F000B8F1000F01D0C8F80040BDE8F087000047
:1015000030B5114900E011460A688242FBD34B68AE
:101510005C18844203D14068184448600846436818
:101520001C18944209D1084C183C2468A24209D0E6
:1015300052681A4442600A6812680260814200D010
:10154000086030BD0460F9E77000002010B5044663
:1015500000F034F9A06B28B15FF0000400F04EF900
:10156000204610BD0124F9E70648416B096829B1FE
:10157000416BC968C9684968816270474FF0FF31A3
:10158000FAE700001C00002008484068401C4FF0AB
:10159000500080F3118804D0BFF34F8FBFF36F8FDB
:1015A000FEE7BFF34F8FBFF36F8FFEE77800002099
:1015B0002DE9F041044600F001F994F9455004F199
:1015C000240609E0606A48B1304600F07FFD08B1AA
:1015D00000F09AF96D1E6DB2002DF3DC4FF0FF366E
:1015E00084F8456000F00AF900F0E8F894F94450F6
:1015F00004F1100709E0206948B1384600F066FDA3
:1016000008B100F081F96D1E6DB2002DF3DC84F895
:101610004460BDE8F04100F0F1B800002DE9F04170
:101620000546002700F0C4F9324E306808B9FFF7CC
:10163000B9FE706905424ED1C5B3083568070ED0B2
:1016400005F00700C0F108000544680707D05020E6
:1016500080F31188BFF34F8FBFF36F8FFEE72DB379
:101660007068854237D82348183001460C6801E07D
:1016700020460C466168A94202D221680029F7D1B0
:1016800031688C4227D0076821680160606808379C
:10169000411B10290FD96019420708D0502080F350
:1016A0001188BFF34F8FBFF36F8FFEE713E04160E8
:1016B0006560FFF725FF61687068401A7060B26866
:1016C000904200D2B060706901430020C4E900017B
:1016D000F068401CF06000F033FD780707D0502020
:1016E00080F31188BFF34F8FBFF36F8FFEE738464B
:1016F000BDE8F0815800002010B5031F4FF0807442
:101700001C601B1F21F001011960191F024B0B60A7
:10171000143940380A6010BD89150008D0E901323B
:1017200001699A60D0E901235A604A68824201D176
:1017300082684A60002202610868401E08600868EA
:1017400070470000034B036003F1540008608020E1
:10175000106070478400002000F108014FF0FF3254
:10176000C0E90112C16001610021016070470021E0
:101770000161704730B50B685A1C02D000F10802B5
:1017800002E0026904E02246546825689D42FAD9C5
:1017900053684B6099608A60516008610168491C18
:1017A000016030BD42684A6093688B6093685960FD
:1017B000916008610168491C01607047502080F306
:1017C0001188BFF34F8FBFF36F8F0A494868401CE1
:1017D000486001280CD10848006810F0FF0F07D0BE
:1017E000502080F31188BFF34F8FBFF36F8FFEE758
:1017F000704700007800002004ED00E008494868C8
:1018000028B1401E486001D180F3118870475020F4
:1018100080F31188BFF34F8FBFF36F8FFEE7000097
:101820007800002070B500282AD0164DA0F10804D9
:1018300060686969084207D1502080F31188BFF3BE
:101840004F8FBFF36F8FFEE722683AB1502080F3CD
:101850001188BFF34F8FBFF36F8FFEE7884360603F
:1018600000F0A6F860686968084468602046FFF7E1
:1018700047FE2869401C2861BDE8704000F060BC4C
:1018800070BD0000580000204FF0E02000210161F1
:10189000816105494FF47A720968B1FBF2F1491E82
:1018A00041610721016170471800002010B5020056
:1018B00014D00F48006B38B1502080F31188BFF36B
:1018C0004F8FBFF36F8FFEE700F072F800211046D4
:1018D000FFF764FC00F034FC002807D105494FF005
:1018E00080500860BFF34F8FBFF36F8F10BD0000B3
:1018F0001C00002004ED00E002490A6A0260C96889
:10190000416070471C00002001490120C8617047F8
:101910001C00002010B50C4650B109490968183167
:10192000FFF728FF2046BDE810400121FFF736BC35
:10193000502080F31188BFF34F8FBFF36F8FFEE706
:101940001C00002010B586B00024039405AA04A949
:1019500003A80494FFF7F6FEDDE903010094CDE946
:10196000011000230EA11048059A00F0C4FA0F4997
:101970000028C86211D0502080F31188BFF34F8F28
:10198000BFF36F8F4FF0FF30886201204861CC6059
:1019900006B0BDE8104000F041B806B010BD000030
:1019A00049444C4500000000F11300081C000020D1
:1019B0000248016B491C0163704700001C000020B5
:1019C0001448016B11B10121C16170470021C1614F
:1019D0000169B1FA81F1C1F11F0101EB81020E49E8
:1019E00051F822306BB101EB820101F108034A6822
:1019F00052684A609A4201D152684A60D1680160D7
:101A00007047502080F31188BFF34F8FBFF36F8F63
:101A1000FEE700001C000020200300201CB5264922
:101A200008780190FF20087008788DF800009DF874
:101A300000009DF8002000F0F000904207D05020F8
:101A400080F31188BFF34F8FBFF36F8FFEE79DF8D0
:101A500000001A4C00F0500020700720A06005E044
:101A60009DF8002052008DF80020401E9DF80020B7
:101A70001206F5D4A060032807D0502080F3118807
:101A8000BFF34F8FBFF36F8FFEE74FF44070A0603E
:101A9000019808700A48016841F47001016001680A
:101AA00041F070410160FFF7EFFE00206060FEF73B
:101AB0007DFB00201CBD000000E400E07800002059
:101AC00020ED00E0F8B517460E46050013D005FBE3
:101AD00006F04830FFF7A2FD04000AD0002084F889
:101AE000460004F148023B46314628460094FFF781
:101AF000AFFC2046F8BD502080F31188BFF34F8F14
:101B0000BFF36F8FFEE7000070B50D46040025D0CF
:101B1000FFF754FED4E90F20216802FB0011A160F9
:101B20000021A163216861600A46D4E90F01401ECB
:101B300000FB0121E16021464FF0FF3001F8440F26
:101B4000487004F110008DB1FFF706FE04F1240087
:101B5000FFF702FEFFF752FE012070BD502080F318
:101B60001188BFF34F8FBFF36F8FFEE72169002904
:101B7000F0D000F0ABFA0028ECD004494FF08050D0
:101B80000860BFF34F8FBFF36F8FE3E704ED00E012
:101B90002DE9FF4782B01D468A464FF00008040039
:101BA00003D0BAF1000F08D011E0502080F3118863
:101BB000BFF34F8FBFF36F8FFEE7206C38B150201B
:101BC00080F31188BFF34F8FBFF36F8FFEE7022DB5
:101BD0000AD1E06B012807D0502080F31188BFF3B1
:101BE0004F8FBFF36F8FFEE700F0B0F93F4F4FF01C
:101BF00000094FF0805648B9049838B1502080F35E
:101C00001188BFF34F8FBFF36F8FFEE7FFF7D6FD4D
:101C1000A06BE16B884207D3022D05D00498D0B1A8
:101C2000B8F1000F1AD01EE02A4651462046FFF7B1
:101C300068FB616A19B104F1240000F047FA20B191
:101C40003E60BFF34F8FBFF36F8FFFF7D7FD0120CB
:101C500006B0BDE8F087FFF7D1FD22E06846FFF748
:101C60004BFE4FF00108FFF7C9FDFFF7A1FEFFF79C
:101C7000A5FD94F94400401C01D184F8449094F9E6
:101C80004500401C01D184F84590FFF7B7FD04A939
:101C9000684600F0C9F830B12046FFF789FC00F033
:101CA0004FFA0020D4E7FFF789FDA06BE16B884273
:101CB00013D1FFF7A3FD04F110000499FFF72AFEEA
:101CC0002046FFF775FC00F03BFA00289ED13E60ED
:101CD000BFF34F8FBFF36F8F98E7FFF78FFD20465D
:101CE000FFF766FC00F02CFA90E7000004ED00E03E
:101CF0002DE9F747002683B08A46040003D0BAF1E5
:101D0000000F08D011E0502080F31188BFF34F8FEF
:101D1000BFF36F8FFEE7206C38B1502080F311883D
:101D2000BFF34F8FBFF36F8FFEE700F00FF9DFF8BF
:101D3000F4804FF000094FF0805748B9059838B14A
:101D4000502080F31188BFF34F8FBFF36F8FFEE7F2
:101D5000FFF734FDA56BC5B151462046FFF7BEFA2B
:101D60006D1EA563206950B104F1100000F0AEF9BA
:101D700028B1C8F80070BFF34F8FBFF36F8FFFF724
:101D80003DFD012006B0BDE8F087059808B11EB101
:101D900006E0FFF733FD27E06846FFF7ADFD0126BB
:101DA000FFF72CFDFFF704FEFFF708FD94F9440050
:101DB000401C01D184F8449094F94500401C01D1A5
:101DC00084F84590FFF71AFD05A9684600F02CF845
:101DD000002820460AD0FFF7EBFB00F0B1F92046BF
:101DE000FFF7B4FB0028B3D00020CBE7FFF7AEFB32
:101DF00090B104F124000599FFF78CFD2046FFF710
:101E0000D7FB00F09DF90028A2D1C8F80070BFF3FD
:101E10004F8FBFF36F8F9BE72046FFF7C9FB00F0A2
:101E20008FF995E704ED00E02DE9F0410C4605003F
:101E300011D0C4B1FFF7C2FC174BDA686E68206896
:101E4000911B471C17D02F681B6A9F4219D09642DE
:101E500017D8012410E0502080F31188BFF34F8F72
:101E6000BFF36F8FFEE7502080F31188BFF34F8FD1
:101E7000BFF36F8FFEE70024FFF7C0FC2046BDE8EC
:101E8000F081884205D9401A20602846FFF734FDCA
:101E9000F1E700202060DCE71C0000202DE9FF5F57
:101EA0008346DDE90E87994616468A469000FFF77D
:101EB000B5FB05001CD05420FFF7B0FB040014D084
:101EC0000020256384F85100CDE90240CDE9008768
:101ED0004B46324651465846FFF7C5FA2046FFF7B3
:101EE00095F9012004B0BDE8F09F2846FFF79AFC61
:101EF0004FF0FF30F6E7F0B585B0DDE90B640A9DE1
:101F0000A6B1DCB1542700972663022684F85160FD
:101F1000002604AFCDE90246CDE90057FFF7A3FA4A
:101F20002046FFF773F9049805B0F0BD502080F308
:101F30001188BFF34F8FBFF36F8FFEE7502080F300
:101F40001188BFF34F8FBFF36F8FFEE705484169DC
:101F500019B1006B18B100207047012070470220B2
:101F6000704700001C0000202DE9F0412F4C002696
:101F7000206B28B1A069401CA0613046BDE8F0810B
:101F8000E5686D1CE56013D1606B006838B15020C6
:101F900080F31188BFF34F8FBFF36F8FFEE7606B45
:101FA000A16B6163A063206A401C2062FFF7DCFA2A
:101FB000A06ADFF87C80854209D3606B0068A0B11D
:101FC000606BC068C7687868854211D2A0622068DB
:101FD000C06A00EB800158F82100012800D90126D1
:101FE000E0690028C9D00126C7E74FF0FF30EDE7D0
:101FF000381DFFF793FBB86A18B107F11800FFF717
:102000008DFBF96A0120226988401043206101EBB1
:10201000810108EB8100391DFFF7C4FBF86A2168D4
:10202000C96A8842C9D30126C7E700001C00002006
:102030002003002070B504004FF0000140D0214D76
:102040002868844207D0502080F31188BFF34F8F57
:10205000BFF36F8FFEE7A06C38B1401EA064636CC5
:10206000E26A9A422CD040B12AE0502080F31188D5
:10207000BFF34F8FBFF36F8FFEE7201DFFF74EFBBF
:10208000114A012150B9E06A00EB800352F8233075
:1020900023B92B6901FA00F083432B61606CE06285
:1020A000C0F10700A061E06A2B69814019432961F2
:1020B00000EB800002EB8000211DFFF773FB012184
:1020C000084670BD1C000020200300202DE9F041CF
:1020D000C068C468ACB104F118000746FFF71EFBE6
:1020E000154D286B0126A0B139461448FFF75AFB5D
:1020F000E06A2968C96A88421CD90120EE61BDE8FE
:10210000F081502080F31188BFF34F8FBFF36F8FA2
:10211000FEE7201DFFF702FBE16A2A6906FA01F0DB
:102120001043286101EB81000449B43901EB8000C0
:10213000211DDBE70020E2E71C000020D403002083
:102140002DE9F0472C4D00242746286B38B1FFF7C6
:1021500035FB286B401E2863286B40B146E05020B9
:1021600080F31188BFF34F8FBFF36F8FFEE7A9682D
:10217000224E0120D1B3A6F1B40980463068E8B1FF
:10218000F068C46804F11800FFF7C8FA201DFFF7D3
:10219000C5FAE06A2A6908FA00F11143296100EBE7
:1021A000800109EB8100211DFFF7FCFAE06A296834
:1021B000C96A8842E2D3C5F81C80DFE70CB1FFF79B
:1021C000D3F9AC6944B14646FFF7CEFE00B1EE61EB
:1021D000641EF9D10020A861E86938B108490127D7
:1021E00038070860BFF34F8FBFF36F8FFFF706FB11
:1021F0003846BDE8F08700001C000020D403002012
:1022000004ED00E04FF47F0C1CEAD0121EBF1CEA64
:10221000D11392EA0C0F93EA0C0F00F0858090EA3C
:10222000010F48BF42F4807240F4000C41F40000FA
:102230002CF07F4120F07F4000B58142A2EB0302E9
:102240000FF2081CACEB504EC0F100009EF800E00D
:102250004FEA4E0E00FB0EFC38BF49004FEA2C1C23
:1022600002F5FA020CFB0EF34FEACE1E4FEA112CD8
:102270004FEAC1210EEB635E42EB22420EFB0CFCE7
:102280004FEA1C5300FB03114FEA112C4FEA0131B6
:102290000EFB0CFC4FEADC4C00FB0C11C14228BFCA
:1022A00009184CEB03335DF804EB10EB410143EBF1
:1022B000C250B2F57C0F38BF704729D512F0F00F2D
:1022C0001CBF00F1C04000F00040704700818283D5
:1022D0008485868788898B8C8D8E8F919293959635
:1022E00097999A9C9D9FA0A2A3A5A7A8AAACAEB0BF
:1022F000B2B3B5B7B9BCBEC0C2C5C7C9CCCED1D4C4
:10230000D7D9DCDFE2E6E9ECF0F3F7FAFE000000F3
:102310004FEA400C0CF1807CBCF17E4F28BF704727
:10232000B0F1C04000F02BB990EA010F0CEAD113D4
:1023300048BF42F48072624538BF634507D213F448
:102340007F0F16D080EA010000F00040704710B502
:1023500000F0CFF8097EFC3E00F005B880EA0100ED
:1023600000F00040704780EA010000F0004000F0FB
:1023700006B912F47F0F04BF0248704780EA0100DB
:1023800000F0FDB80000C07FC10DD1F19E0206DB58
:102390004FEA002343F0004323FA02F07047004263
:1023A00007D54FEA4001B1F1FE4F02D24FF00000D5
:1023B000704710B500F09DF84992248000207047C6
:1023C0006FEA200070470000B0FA80F310FA03F2C1
:1023D000C3F19D030AD0D90501EB1220530638BF83
:1023E000704700F1010008BF20F0010070470000B5
:1023F0004FF47F0C1CEAD0121EBF1CEAD11392EAE4
:102400000C0F93EA0C0F00F0478090EA010F48BFD1
:1024100042F480724FF0004C4CEA00204CEA01215B
:1024200002EB0302A0FB0113A2F50002002918BF72
:1024300043F001035B0028BF4FEA330342EB224223
:102440005FEA132C4CEBC2502EBFBCEB436FB2F5CE
:102450007C0F70474FEA036CBCF1004F08BF20F0BF
:102460000100B2F57C0F38BF70470BD582F0FF0238
:1024700012F5803FC8BF704700F1C040D8BF00F0E0
:102480000040704700F5000C5FEA4C0C48BF7047F5
:10249000B0F1C04000F073B890EA010F0CEAD1131C
:1024A00048BF42F48072624538BF634504D280EA77
:1024B000010000F00040704710B500F01AF800BFAE
:1024C0008900013E00F007B800F009B85FEA410C4E
:1024D0005FEA1C6C08D080EA010000F050B85FEAA7
:1024E000400C5FEA1C6CF6D14FF00040A0F5800074
:1024F00070470EF1020E2EF0030E5EF8044B2442DC
:1025000004D44FEA4102B2F17F4F11D84FEA4003A1
:10251000B3F17F4F0CD80ED14FEAD07CB2F17F4F90
:102520000CEB4C0C0CF1020C08BF4CEBD17C04E022
:102530004FF0080C01E04FEAD17C0CEB4C0324FA7D
:1025400003F404F00704B4F1040C06D20EEB840C7F
:10255000BDE810404CF0010C6047DFE80CF00708C4
:1025600002024FF00040A0F5800010BD0846420076
:1025700018BFD2F1807288BF00F0004010BDFF216B
:1025800041EAD050C00570470000803F000048423B
:102590000000803F000048420000004000008C42E4
:1025A000000080400000F0410000803F00004842F1
:1025B000010202030405060708090A0B0C0D0E0FA1
:1025C00010100000000000000000010203040607D4
:1025D000080900000000010203040000FC250008B7
:1025E0000000002084000000280100088026000868
:1025F00084000020EC1500004401000800000000E9
:1026000000000000000000000100000010000000B9
:102610000000000000127A0000000000000000002E
:1026200000000000000000000000000000000000AA
:10263000000000000000000000000000000000009A
:10264000000000000000000000000000000000008A
:10265000000000000000000000000000000000007A
:10266000000000000000000000000000000000006A
:102670000000000000000000AAAAAAAA00000000B2
:04000005080000ED02
:00000001FF
